{
  "contractName": "Ontology",
  "abi": [
    {
      "inputs": [],
      "payable": false,
      "stateMutability": "nonpayable",
      "type": "constructor"
    },
    {
      "constant": true,
      "inputs": [
        {
          "internalType": "string",
          "name": "",
          "type": "string"
        },
        {
          "internalType": "uint256",
          "name": "",
          "type": "uint256"
        }
      ],
      "name": "ontologies",
      "outputs": [
        {
          "internalType": "string",
          "name": "",
          "type": "string"
        }
      ],
      "payable": false,
      "stateMutability": "view",
      "type": "function"
    },
    {
      "constant": false,
      "inputs": [
        {
          "internalType": "string",
          "name": "_ontology_IRI",
          "type": "string"
        },
        {
          "internalType": "string",
          "name": "_ontology_terms",
          "type": "string"
        }
      ],
      "name": "upload_ontology",
      "outputs": [],
      "payable": false,
      "stateMutability": "nonpayable",
      "type": "function"
    },
    {
      "constant": true,
      "inputs": [
        {
          "internalType": "string",
          "name": "_ontology_IRI",
          "type": "string"
        },
        {
          "internalType": "string",
          "name": "_rdf_terms",
          "type": "string"
        }
      ],
      "name": "check_rdf",
      "outputs": [
        {
          "internalType": "string",
          "name": "",
          "type": "string"
        }
      ],
      "payable": false,
      "stateMutability": "view",
      "type": "function"
    }
  ],
  "bytecode": "0x608060405234801561001057600080fd5b506110f1806100206000396000f3fe608060405234801561001057600080fd5b50600436106100415760003560e01c806319e671d0146100465780631e4a9a68146101845780632d997baa1461034f575b600080fd5b6101096004803603604081101561005c57600080fd5b810190808035906020019064010000000081111561007957600080fd5b82018360208201111561008b57600080fd5b803590602001918460018302840111640100000000831117156100ad57600080fd5b91908080601f016020809104026020016040519081016040528093929190818152602001838380828437600081840152601f19601f820116905080830192505050505050509192919290803590602001909291905050506104a1565b6040518080602001828103825283818151815260200191508051906020019080838360005b8381101561014957808201518184015260208101905061012e565b50505050905090810190601f1680156101765780820380516001836020036101000a031916815260200191505b509250505060405180910390f35b6102d46004803603604081101561019a57600080fd5b81019080803590602001906401000000008111156101b757600080fd5b8201836020820111156101c957600080fd5b803590602001918460018302840111640100000000831117156101eb57600080fd5b91908080601f016020809104026020016040519081016040528093929190818152602001838380828437600081840152601f19601f8201169050808301925050505050505091929192908035906020019064010000000081111561024e57600080fd5b82018360208201111561026057600080fd5b8035906020019184600183028401116401000000008311171561028257600080fd5b91908080601f016020809104026020016040519081016040528093929190818152602001838380828437600081840152601f19601f82011690508083019250505050505050919291929050505061057d565b6040518080602001828103825283818151815260200191508051906020019080838360005b838110156103145780820151818401526020810190506102f9565b50505050905090810190601f1680156103415780820380516001836020036101000a031916815260200191505b509250505060405180910390f35b61049f6004803603604081101561036557600080fd5b810190808035906020019064010000000081111561038257600080fd5b82018360208201111561039457600080fd5b803590602001918460018302840111640100000000831117156103b657600080fd5b91908080601f016020809104026020016040519081016040528093929190818152602001838380828437600081840152601f19601f8201169050808301925050505050505091929192908035906020019064010000000081111561041957600080fd5b82018360208201111561042b57600080fd5b8035906020019184600183028401116401000000008311171561044d57600080fd5b91908080601f016020809104026020016040519081016040528093929190818152602001838380828437600081840152601f19601f8201169050808301925050505050505091929192905050506109cf565b005b60008280516020810182018051848252602083016020850120818352809550505050505081815481106104d057fe5b90600052602060002001600091509150508054600181600116156101000203166002900480601f0160208091040260200160405190810160405280929190818152602001828054600181600116156101000203166002900480156105755780601f1061054a57610100808354040283529160200191610575565b820191906000526020600020905b81548152906001019060200180831161055857829003601f168201915b505050505081565b6060600080846040518082805190602001908083835b602083106105b65780518252602082019150602081019050602083039250610593565b6001836020036101000a0380198251168184511680821785525050505050509050019150509081526020016040518091039020805490501115610990576060604051806020016040528060008152509050606061061284610bb2565b905060008090505b81518110156109855760008090505b6000876040518082805190602001908083835b6020831061065f578051825260208201915060208101905060208303925061063c565b6001836020036101000a038019825116818451168082178552505050505050905001915050908152602001604051809103902080549050811015610977576000876040518082805190602001908083835b602083106106d357805182526020820191506020810190506020830392506106b0565b6001836020036101000a0380198251168184511680821785525050505050509050019150509081526020016040518091039020818154811061071157fe5b9060005260206000200180546001816001161561010002031660029004905083838151811061073c57fe5b602002602001015151141561096a5760606000886040518082805190602001908083835b602083106107835780518252602082019150602081019050602083039250610760565b6001836020036101000a038019825116818451168082178552505050505050905001915050908152602001604051809103902082815481106107c157fe5b906000526020600020018054600181600116156101000203166002900480601f01602080910402602001604051908101604052809291908181526020018280546001816001161561010002031660029004801561085f5780601f106108345761010080835404028352916020019161085f565b820191906000526020600020905b81548152906001019060200180831161084257829003601f168201915b50505050509050808051906020012084848151811061087a57fe5b6020026020010151805190602001201415610968578484848151811061089c57fe5b60200260200101516040516020018083805190602001908083835b602083106108da57805182526020820191506020810190506020830392506108b7565b6001836020036101000a03801982511681845116808217855250505050505090500182805190602001908083835b6020831061092b5780518252602082019150602081019050602083039250610908565b6001836020036101000a03801982511681845116808217855250505050505090500192505050604051602081830303815290604052945050610977565b505b8080600101915050610629565b50808060010191505061061a565b5081925050506109c9565b6040518060400160405280601281526020017f6f6e746f6c6f6779206e6f7420666f756e64000000000000000000000000000081525090505b92915050565b60606109da82610bb2565b9050600080846040518082805190602001908083835b60208310610a1357805182526020820191506020810190506020830392506109f0565b6001836020036101000a0380198251168184511680821785525050505050509050019150509081526020016040518091039020805490501115610b2e5760008090505b8151811015610b285760016000856040518082805190602001908083835b60208310610a975780518252602082019150602081019050602083039250610a74565b6001836020036101000a0380198251168184511680821785525050505050509050019150509081526020016040518091039020838381518110610ad657fe5b60200260200101519080600181540180825580915050906001820390600052602060002001600090919290919091509080519060200190610b18929190610ec3565b5050508080600101915050610a56565b50610bad565b806000846040518082805190602001908083835b60208310610b655780518252602082019150602081019050602083039250610b42565b6001836020036101000a03801982511681845116808217855250505050505090500191505090815260200160405180910390209080519060200190610bab929190610f43565b505b505050565b60606000809050606083905060008090505b8151811015610c43577f3c00000000000000000000000000000000000000000000000000000000000000828281518110610bfa57fe5b602001015160f81c60f81b7effffffffffffffffffffffffffffffffffffffffffffffffffffffffffffff19161415610c365782806001019350505b8080600101915050610bc4565b50606082604051908082528060200260200182016040528015610c7a57816020015b6060815260200190600190039081610c655790505b509050600092506000809050606060008090505b8451811015610eb5576000831415610d715760008190505b8551811015610d6f577f3e00000000000000000000000000000000000000000000000000000000000000868281518110610cdc57fe5b602001015160f81c60f81b7effffffffffffffffffffffffffffffffffffffffffffffffffffffffffffff191614610d1b578380600101945050610d62565b8380600101945050836040519080825280601f01601f191660200182016040528015610d565781602001600182028038833980820191505090505b50925060009350610d6f565b8080600101915050610ca6565b505b7f3e00000000000000000000000000000000000000000000000000000000000000858281518110610d9e57fe5b602001015160f81c60f81b7effffffffffffffffffffffffffffffffffffffffffffffffffffffffffffff191614610e2d57848181518110610ddc57fe5b602001015160f81c60f81b828480600101955081518110610df957fe5b60200101907effffffffffffffffffffffffffffffffffffffffffffffffffffffffffffff1916908160001a905350610ea8565b848181518110610e3957fe5b602001015160f81c60f81b828480600101955081518110610e5657fe5b60200101907effffffffffffffffffffffffffffffffffffffffffffffffffffffffffffff1916908160001a90535081848780600101985081518110610e9857fe5b6020026020010181905250600092505b8080600101915050610c8e565b508295505050505050919050565b828054600181600116156101000203166002900490600052602060002090601f016020900481019282601f10610f0457805160ff1916838001178555610f32565b82800160010185558215610f32579182015b82811115610f31578251825591602001919060010190610f16565b5b509050610f3f9190610fa3565b5090565b828054828255906000526020600020908101928215610f92579160200282015b82811115610f91578251829080519060200190610f81929190610fc8565b5091602001919060010190610f63565b5b509050610f9f9190611048565b5090565b610fc591905b80821115610fc1576000816000905550600101610fa9565b5090565b90565b828054600181600116156101000203166002900490600052602060002090601f016020900481019282601f1061100957805160ff1916838001178555611037565b82800160010185558215611037579182015b8281111561103657825182559160200191906001019061101b565b5b5090506110449190610fa3565b5090565b61107191905b8082111561106d57600081816110649190611074565b5060010161104e565b5090565b90565b50805460018160011615610100020316600290046000825580601f1061109a57506110b9565b601f0160209004906000526020600020908101906110b89190610fa3565b5b5056fea265627a7a72315820105e77fe124c26660fe1b8cac707b411e65184968fdf60f1da3870793c67a88964736f6c63430005100032",
  "source": "pragma solidity >=0.4.22 <0.9.0;\n\ncontract Ontology {\n\n    mapping(string => string[]) public ontologies;\n\n    constructor() public {\n    }\n\n    function upload_ontology(string memory _ontology_IRI, string memory _ontology_terms) public {\n        string[] memory tmp = split(_ontology_terms);\n        if(ontologies[_ontology_IRI].length > 0){\n            for(uint256 i = 0; i < tmp.length; i++){\n                ontologies[_ontology_IRI].push(tmp[i]) - 1;\n            }\n        }\n        else {\n            ontologies[_ontology_IRI] = tmp;\n        }\n    }\n\n    function check_rdf(string memory _ontology_IRI, string memory _rdf_terms) public view returns(string memory){\n        if(ontologies[_ontology_IRI].length > 0){\n            string memory str = \"\";\n            string[] memory rdfTerms = split(_rdf_terms);\n            for(uint256 i = 0; i < rdfTerms.length; i++){\n                for(uint j = 0; j < ontologies[_ontology_IRI].length; j++){\n                    if(bytes(rdfTerms[i]).length == bytes(ontologies[_ontology_IRI][j]).length){\n                        string memory tmp = ontologies[_ontology_IRI][j];\n                        if(keccak256(bytes(rdfTerms[i])) == keccak256(bytes(tmp))){\n                            str = string(abi.encodePacked(str, rdfTerms[i]));\n                            break;\n                        }\n                    } \n                }\n            }\n            return str;\n        } else {\n            return \"ontology not found\";\n        }\n    }\n\n    function split(string memory _ontology_terms) private pure returns(string[] memory){\n        uint256 ile = 0; \n        bytes memory stringAsBytesArray = bytes(_ontology_terms);\n\n        for(uint256 i = 0; i < stringAsBytesArray.length; i++){\n            if(stringAsBytesArray[i] == '<'){\n                ile++;\n            }\n        }\n\n        string[] memory array = new string[](ile);\n        ile = 0;\n        uint256 count = 0;\n        bytes memory tmp;\n\n        for(uint256 i = 0; i < stringAsBytesArray.length; i++){\n            if(count == 0){\n                for(uint256 j = i; j < stringAsBytesArray.length; j++){\n                    if(stringAsBytesArray[j] != '>'){\n                        count++;\n                    } else {\n                        count++;\n                        tmp = new bytes(count);\n                        count = 0;\n                        break;\n                    }\n                }\n            }\n            if(stringAsBytesArray[i] != '>'){\n                tmp[count++] = stringAsBytesArray[i];\n            } else {\n                tmp[count++] = stringAsBytesArray[i];\n                array[ile++] = string(tmp);\n                count = 0;\n            }\n        }\n\n        return array;\n    }\n\n}\n",
  "sourcePath": "/home/kostia/Projects/Ethereum/Ontology/contracts/Ontology.sol",
  "compiler": {
    "name": "solc",
    "version": "0.5.16+commit.9c3226ce.Emscripten.clang"
  },
  "schemaVersion": "3.4.1",
  "updatedAt": "2021-09-01T13:56:04.330Z",
  "networkType": "ethereum",
  "devdoc": {
    "methods": {}
  },
  "userdoc": {
    "methods": {}
  }
}